:100000005BEF05F00000000000EF00F000000000D2
:0A0010000000000000000000F3D71C
:08001C000AAE029E000E120064
:100024008D84410E0C6EEE0E0D6E0D2EFED70C2E31
:10003400FCD70000FB0E8D16410E0C6EEE0E0D6EFD
:0C0044000D2EFED70C2EFCD70000120081
:0E005000026A016A006A086A036A000E120062
:10005E000B840BAE3AEF00F0010E036E026A016ADA
:0A006E00006A0A360232FF0E12008B
:100078000B820BAE46EF00F0036802680168006867
:080088000A360232FF0E1200DD
:1000900042C004F043C005F004C002F005C003F004
:1000A000044A052A44C000F045C001F0444A452AEC
:1000B00000C0E9FF01C0EAFF02C0E1FF03C0E2FFA8
:1000C000EECFE6FF02C0E9FF03C0EAFFEE5201E017
:0C00D000E3D742C000F043C001F0120072
:0800DC000B6A0B86FF0E1200F7
:1000E400086A096A000E07620364F7EF00F0025021
:1000F40006180A6E075003267E0ED8A088EF00F07B
:10010400035ED8B0FBEF00F08CEF00F0035ED8A0E4
:10011400FFEF00F0028E068E02C00EF001C00BF05D
:1001240000C00DF000500402F4CF0CF001500502A1
:10013400F4CF00F0F3CF08F00402F3500C26F4508F
:100144000822000E00220D500502F3500C26F45034
:100154000822000E002202500402F3500826F45034
:10016400002202500502016A000E0122F35000260B
:10017400F45001220D500602F3500826F4500022D8
:10018400026A000E012202220B500602F3500026DE
:10019400F4500122000E02220E500602F3500126F2
:1001A400F450022202BEDFEF00F0083600360136BA
:1001B40002360306D8B4FFEF00F0F2EF00F0D88067
:1001C400800E08640030000E002201220222D8A012
:1001D400F2EF00F0023201320032034AFBEF00F08A
:1001E4000AAE029E000E01EF01F0010E2FDF01EFB7
:1001F40001F0020E3FDF01EF01F0040E2EDF1200CA
:100204000A6A0350D8A40A800750D8A40A820A5064
:10021400D8B465EF01F0030AD8B41EEF01F00AB0B8
:1002240019EF01F006AE63EF01F061EF01F002AEE9
:1002340061EF01F063EF01F00250800B0A6E029E41
:100244000650800B069E0A18D8B42FEF01F00A500E
:10025400D8B461EF01F063EF01F00750035CD8B448
:1002640039EF01F0D8A055EF01F05BEF01F0065033
:10027400025CD8B443EF01F0D8A055EF01F05BEF76
:1002840001F00550015CD8B44DEF01F0D8A055EF52
:1002940001F05BEF01F00450005CD8B465EF01F0AD
:1002A400D8B05BEF01F00A52D8B463EF01F061EF0C
:1002B40001F00A52D8B461EF01F063EF01F0D88085
:0E02C4001200D8901200D880D88412001200C8
:1002D2000C6A0E6A0250D8A482EF01F001C002F04B
:1002E20000C001F0006A0E860250D8A482EF01F02D
:1002F20001C002F0016A0E960E880250D8B494EF43
:1003020001F00E50035ED8A4D8A099EF01F0D89066
:1003120002BE9EEF01F0003601360236032E89EF4F
:1003220001F099EF01F0010E0C6E91DEA1EF01F0E8
:10033200020E0C6E93DEA1EF01F0040E0C6E6DDE68
:020342001200A7
:100344000D6A086A0050D8B4000C04180A6E0ABE7C
:100354000D1E0B6A04AE02D0041E042A00AE02D0A5
:10036400001E002A005004100A6E0ABE1FD004505A
:10037400085E003600340836045008260036060E9F
:100384000C6E00340836045000B0085E00A0082645
:1003940000360C2EF6D700A008260BB015D00DAEF3
:1003A400000C001E002A081E082A000C04AE09D006
:1003B40000BE04D00050086E006AF1D7006A002A1B
:1003C400000C001E0B2AD3D7082A0450085CD8A4BA
:0E03D400E6D7086A002A00AEE2D7FF0C12003E
:1003E200FE0E8D16410E0C6EEE0E0D6E0D2EFED70C
:0E03F2000C2EFCD7000042C08CFF13DE120060
:10040000F80E9616956A410E0C6EEE0E0D6E0D2EC0
:10041000FED70C2EFCD70000380E426E000E436E45
:10042000E0DF0C0E426E000E436EDBDF0F0E426EFD
:10043000000E436ED6DF020E426E000E436ED1DF19
:0C044000010E426E000E436ECCDF120075
:10044C0000C008F00150006E016A026A036A0B6A70
:10045C000C6A016A026A036A960E036E0A6A00AE9F
:10046C003EEF02F0081E001E082AD8B4002A0A8E9D
:10047C0000C001F008C000F0086A026A24DF120014
:10048C003A6A3B6A060E026E36C000F037C001F0C5
:10049C00025005E0003600900136FF0FFAD7400EEF
:1004AC00005E000E015A800E0024026E000E012028
:1004BC00036E010E345C006E000E3558016EFE0E9C
:1004CC008D16005002248C6EA7DD410E0C6EEE0EC4
:1004DC000D6E0D2EFED70C2EFCD700008D803A6AC7
:1004EC003B6A3A503824E96E3B503920EA6EEE50A4
:1004FC00000A0CE03A503824E96E3B503920EA6E81
:0E050C00EECF8CFF89DD3A4A3B2AEBD7120076
:10051A000900F5CFE6FF0006FBE10106F9E112004A
:10052A000450000A12E10550000A0FE10650000AC1
:10053A000CE10750000A09E1FF0E006EFF0E016E82
:10054A007F0E026EFF0E036EA4D0086A096A075076
:10055A00D8B440EF03F00350D8B444EF03F002508C
:10056A0006180A6E028E068E0E6A02C008F001C0D4
:10057A000CF000C00DF004500D5E0550D8A0053CEB
:10058A000C5E0650D8A0063C085E086A0C6A0D6A22
:10059A00D8A0D7EF02F0D8900232013200320832E6
:1005AA00010E0E6E0750035ED8A0E4EF02F07E0E35
:1005BA000E240326D8B048EF03F0EAEF02F07E0ECD
:1005CA000E240326D8A04CEF03F0180E0B6E0D363E
:1005DA000C3608360036013602360E360450005EF6
:1005EA000550D8A0053C015E0650D8A0063C025E24
:1005FA0006340E120EA005EF03F00D8010EF03F083
:10060A00045000260550D8B0053C01260650D8B043
:10061A00062802260D900B2EECEF02F036EF03F0BF
:10062A00D8900036013602360E360450005E055068
:10063A00D8A0053C015E0650D8A0063C025E0634EE
:10064A000E10010B0D26D8B00C2AD8B4082AD8A44B
:10065A0036EF03F008320C320D32032AD8B448EFD1
:10066A0003F00AAE089E0850026E0C50016E0D503F
:10067A00006E4EEF03F0010E2CDD4EEF03F0020E7A
:10068A00E2DC4EEF03F0040EF2DC4EEF03F0080E4C
:04069A00E1DC12008D
:10069E00406A416A34C03CF035C03DF036C03EF091
:1006AE0037C03FF03F50FF0A08E13E50FF0A05E118
:1006BE003D50FF0A02E13C50FF0A0CE138C042F007
:1006CE0039C043F01B0E446E000E456EDADC030E8D
:1006DE00006EE9D1010E3A6E3EAE0ED0800E3E187F
:1006EE00006E00C03EF03A2A38C0E1FF39C0E2FF8A
:1006FE002D0EE66E384A392A000E006E3F1808E1BC
:10070E0000503E1805E100503D1802E13C50000A31
:10071E000BE138C042F039C043F0190E446E000EA2
:10072E00456EAFDC006ABFD13F50FF0A08E13E5074
:10073E00000A05E13D50000A02E13C50000A0CE1BE
:10074E0038C042F039C043F0150E446E000E456EAF
:10075E0098DC3AC000F0A7D1000E046E000E056EB4
:10076E00000E066E7F0E076E3CC000F03DC001F01D
:10077E003EC002F03FC003F03EDD010ED8B0000EC9
:10078E00006E00521BE03CC000F03DC001F03EC0C8
:10079E0002F03FC003F0000E046E000E056E200E38
:1007AE00066E820E076E97DC00C03CF001C03DF075
:1007BE0002C03EF003C03FF04106CED7000E046EDD
:1007CE00000E056E200E066E820E076E3CC000F007
:1007DE003DC001F03EC002F03FC003F00CDD000E44
:1007EE00D8B0010E006E00521BE03CC000F03DC0C0
:1007FE0001F03EC002F03FC003F0CD0E046ECC0EF1
:10080E00056E4C0E066E7B0E076E65DC00C03CF06E
:10081E0001C03DF002C03EF003C03FF0412ACED7EA
:10082E00FF0E3C14086EFF0E3D14096E7F0E3E1433
:10083E000A6E000E3F140B6E08C004F009C005F0DE
:10084E000AC006F00BC007F00436049005360636D3
:10085E000736000E3C14006E000E3D14016E000EA5
:10086E003E14026EFF0E3F14036E00C03CF001C03A
:10087E003DF002C03EF003C03FF004503C10006E4D
:10088E0005503D10016E06503E10026E07503F108F
:10089E00036E00C03CF001C03DF002C03EF003C04C
:1008AE003FF07F0E3F5C006E00C03BF0010E3F6ECE
:1008BE0000C004F03CC000F03DC001F03EC002F0AC
:1008CE003FC003F0045007E00036009001360236B8
:1008DE000336FF0FF8D700C03CF001C03DF002C058
:1008EE003EF003C03FF038C0E1FF39C0E2FF3F5099
:1008FE00300FE66E384A392A800E4118006E800E8F
:10090E00010A005C08E3800E060A006E800E411894
:10091E00005C01E30AD038C0E1FF39C0E2FF2E0EC1
:10092E00E66E384A392A010E406E060E3B6E3B507B
:10093E00000A54E03F6A3CC000F03DC001F03EC0EA
:10094E0002F03FC003F00036009001360236033647
:10095E00003600900136023603363C5000263D50DC
:10096E0001223E5002223F50032200C03CF001C043
:10097E003DF002C03EF003C03FF03CC000F03DC071
:10098E0001F03EC002F03FC003F000360090013689
:10099E000236033600C03CF001C03DF002C03EF00E
:1009AE0003C03FF038C0E1FF39C0E2FF3F50300FC7
:1009BE00E66E384A392A4050000A0EE1410641508F
:1009CE00000A0AE138C0E1FF39C0E2FF2E0EE66EE2
:1009DE00384A392A010E406E3B06A9D7FF0E38243D
:1009EE00E96EFF0E3920EA6EEE50300A05E1010E77
:1009FE00385E000E395AF2D7FF0E3824E96EFF0E1C
:100A0E003920EA6EEE502E0A04E1010E385E000E19
:100A1E00395A4150000A41E038C0E1FF39C0E2FFC7
:100A2E00650EE66E384A392A800E4118006E800E29
:100A3E00000A005C0BE238C0E1FF39C0E2FF2D0E68
:100A4E00E66E384A392A41500008416E41C03BF0EB
:100A5E00800E090A006E800E4118005C0EE20A0E2E
:100A6E00046E3BC000F067DC38C0E1FF39C0E2FF26
:100A7E000050300FE66E384A392A0A0E046E3BC01B
:100A8E0000F059DC08C000F038C0E1FF39C0E2FFC9
:100A9E000050300FE66E384A392A38C0E1FF39C0AF
:080AAE00E2FFE66A006A120093
:100AB600E0EC05F0C29AC298C296C294C2800E0EAD
:100AC600C16EC08E9280C28298DC0C0E426E000E01
:100AD600436E84DCC2A201D0FDD7C3CF1FF0000E47
:100AE600206EC4CF21F0000E226E21C024F0236AAE
:100AF6001F50231220502412030E0B6E8A0E0C6E0A
:100B0600550E0D6E0D2EFED70C2EFCD70B2EFAD7DA
:100B16000000000023C000F024C001F094DC000EA9
:100B2600046EC00E056E7F0E066E880E076EFADC2A
:100B3600000E046E000E056E200E066E810E076E08
:100B460072EC00F0300E256E300E266E300E276EDB
:100B5600300E286E300E296E00C034F001C035F01C
:100B660002C036F003C037F0250E386E000E396E1F
:100B760093DD296A010E346E000E356E010E366E57
:100B8600000E376E250E386E000E396E7CDCC28282
:100B9600030E0B6E8A0E0C6E550E0D6E0D2EFED7C5
:100BA6000C2EFCD70B2EFAD70000000093D7FFD7E8
:100BC00010EE15F00A0E006E010E016EB60EF66EF6
:0E0BD0000B0EF76E000EF86E8DEC02F01200A8
:040BB600494E46005E
:020BBA00300009
:040BBC004E614E0038
:020000040030CA
:0E000000000C1F1EFF8381FF0FC00FE00F409A
:00000001FF
