:04000000EDEF01F02F
:100008009EA009D09DA007D0EC0ECF6E790ECE6EC3
:080018009E90154A162A110002
:0C002000000000000000000000001200C2
:10002C00240E0C6EB50E0D6E0D2EFED70C2EFCD7BD
:06003C00000000001200AC
:0A004200530E0D6E0D2EFED71200B6
:10004C00086A096A100E0C6E013408360936045021
:10005C00085E0550D8A0053C095ED8B007D0045006
:10006C0008260550D8B0053C0926D8900036013634
:06007C000C2EEAD7120071
:1000820030BE02D0839E01D0838E30BC02D0839CCE
:1000920001D0838C30BA02D0839A01D0838A30B8DF
:1000A20002D0839801D083881EB002D0848001D010
:1000B20084908484B4DF849430B602D0839E01D0CD
:1000C200838E30B402D0839C01D0838C30B202D0B4
:1000D200839A01D0838A30B002D0839801D083887A
:1000E2001EB002D0848001D08490848498DF8494EE
:0C00F2001EA002D09ADF01D0A3DF120094
:0C00FE001E9029C030F0BEDF1E801200F2
:10010A00969496909598959A959C959E84948490A9
:10011A00839E839C839A839884DF83DF82DF838A2A
:10012A008388848478DF84947CDF848474DF849475
:10013A0078DF848470DF849474DF839884846BDF2F
:10014A0084946FDF848467DF8494839A838E8484A3
:10015A0062DF849466DF839E838884845CDF849470
:10016A008398848458DF84945CDF848454DF849485
:10017A008388848450DF849454DF839884844BDF9B
:10018A008494838E838C838A8388848444DF8494D2
:06019A0048DF1E80120088
:1001A0002D6A050E2D5C0AE22D502B24E16E000E07
:1001B0002C20E26E200EE66E2D2AF3D72D502B2434
:1001C000E16E000E2C20E26EE66A2D062D502B24E7
:1001D0002E6E000E2C202F6E0A0E046E000E056E81
:1001E00029C000F02AC001F031DF08C000F009C0CA
:1001F00001F0300E00262EC0E1FF2FC0E2FF00C04C
:10020000E6FF0A0E046E000E056E29C000F02AC03B
:1002100001F01CDF00C029F001C02AF0000E011817
:1002200002E1000E001801E102D02D06CFD7120026
:100230000F0EC1129288FB0E94168B84020E961636
:100240008D6A63DF0C0E306E1CDFD58ED59CD58A8F
:10025000D588D586D76AD66ACD8ECD98CD9ACD92DF
:10026000CD9CCD80EC0ECF6E790ECE6EF28EF28CE0
:080270009E909D809F8012000A
:100278000900F5CFE6FF0006FBE10106F9E11200EF
:100288000FD0800E1F6E19D0C00E1F6E16D0940EA0
:100298001F6E13D0D40E1F6E10D0800E1F6E0DD09F
:1002A8001F50010AEEE01F50020AEEE01F50030A39
:1002B800EEE01F50040AEEE0F0D72004006E1F5055
:1002C800002600C01FF000C030F0D7DE1E90236A61
:1002D80023502124E96E000E2220EA6EEE520BE034
:1002E80023502124E96E000E2220EA6EEECF29F079
:0A02F80002DF232AEDD71E8012005A
:10030200256A266A1FC027F020C028F0800E201818
:10031200006E800E005C02E1000E1F5C0BE2010E1B
:10032200256E000E266E1F500008276E20C028F092
:10033200000E285627C029F028C02AF021C02BF031
:1003420022C02CF02CDF060E236E000E246E000E4F
:10035200006E2450005C02E12350000819E2235091
:100362002124E16E24502220E26E010E235C006EF5
:10037200000E2458016E00502124E96E0150222003
:10038200EA6EEECFE6FF010E235E000E245ADFD79F
:1003920021C0E1FF22C0E2FF200EE66E25502610AA
:1003A2001AE0236A246A23502124E96E2450222071
:1003B200EA6EEE50200A03E1234A242AF4D7010E02
:1003C200235E000E245A23502124E16E2450222061
:0803D200E26E2D0EE66E120032
:1003DA00156A166A28DF15C01FF016C020F0170E1E
:1003EA00216E000E226E88DF010E1F6E010E206E36
:1003FA00170E216E000E226E42DF800E1618006E56
:10040A00800E030A005C02E1E80E155C02E3156A3D
:10041A00166A8B84040E0C6E3D0E0D6E0D2EFED7E1
:10042A000C2EFCD7000000008B6A040E0C6E3D0EE9
:10043A000D6E0D2EFED70C2EFCD700000000CBD778
:02044A00FFD7DA
:020000040030CA
:0E000000000C1F1EFF8381FF0FC00FE00F409A
:00000001FF
