:10000000F8EF00F00000000000EF00F0000000003A
:0A0010000000000000000000F3D71C
:0C001C00000000000000000000001200C6
:10002800240E0C6EB50E0D6E0D2EFED70C2EFCD7C1
:06003800000000001200B0
:0A003E00530E0D6E0D2EFED71200BA
:1000480024BE02D0839E01D0838E24BC02D0839C20
:1000580001D0838C24BA02D0839A01D0838A24B831
:1000680002D0839801D083881DB002D0848001D04B
:1000780084908484CFDF849424B602D0839E01D0F8
:10008800838E24B402D0839C01D0838C24B202D006
:10009800839A01D0838A24B002D0839801D08388C0
:1000A8001DB002D0848001D084908484B3DF84940E
:0C00B8001DA002D0B5DF01D0BEDF120099
:0C00C4001D9023C024F0BEDF1D80120040
:1000D0000900F5CFE6FF0006FBE10106F9E1120099
:1000E000969496909598959A959C959E84948490D4
:1000F000839E839C839A839897DF96DF95DF838A1C
:10010000838884848BDF84948FDF848487DF849466
:100110008BDF848483DF849487DF839884847EDF0D
:10012000849482DF84847ADF8494839A838E8484A7
:1001300075DF849479DF839E838884846FDF849461
:10014000839884846BDF84946FDF848467DF849476
:100150008388848463DF849467DF839884845EDF8C
:100160008494838E838C838A8388848457DF8494E9
:060170005BDF1D801200A0
:100176000FD0800E1E6E19D0C00E1E6E16D0940EB5
:100186001E6E13D0D40E1E6E10D0800E1E6E0DD0B5
:100196001E50010AEEE01E50020AEEE01E50030A4F
:1001A600EEE01E50040AEEE0F0D71F04006E1E506B
:1001B600002600C01EF000C024F043DF1D90226A16
:1001C60022502024E96E000E2120EA6EEE520BE04A
:1001D60022502024E96E000E2120EA6EEECF23F095
:0A01E6006EDF222AEDD71D80120003
:1001F000540E156E650E166E730E176E740E186E15
:10020000690E196E6E0E1A6E670E1B6E1C6A0F0E4B
:10021000C16E410E0C6EEE0E0D6E0D2EFED70C2E25
:10022000FCD700005DDF030E0B6E8A0E0C6E550EC0
:100230000D6E0D2EFED70C2EFCD70B2EFAD700001C
:1002400000000C0E246E00DF030E0B6E8A0E0C6E87
:10025000550E0D6E0D2EFED70C2EFCD70B2EFAD799
:1002600000000000010E246EEFDE030E0B6E8A0EFE
:100270000C6E550E0D6E0D2EFED70C2EFCD70B2ED0
:10028000FAD7000000000F0E246EDEDE030E0B6EA8
:100290008A0E0C6E550E0D6E0D2EFED70C2EFCD751
:1002A0000B2EFAD700000000020E246ECDDE010EE8
:1002B0001E6E010E1F6E150E206E000E216E5BDF8E
:0202C000FFD766
:020000040030CA
:0E000000000C1F1EFF8381FF0FC00FE00F409A
:00000001FF
