:100000000EEF00F00000000000EF00F00000000024
:0A0010000000000000000000F3D71C
:10001C00156A166A176A818E0F0EC16E010E936EE9
:10002C00926A81A00CD0010E156E410E0C6EEE0E74
:10003C000D6E0D2EFED70C2EFCD700000AD0156AC3
:10004C00410E0C6EEE0E0D6E0D2EFED70C2EFCD747
:10005C0000001550010A0BE11750000A08E1165078
:10006C00000A05E1010E166E010E176E0CD015502C
:10007C00010A09E11750010A06E11650000A03E1D2
:10008C00176A010E166E1650010A02E181A0166A5B
:08009C0017C089FFC6D7FFD78A
:020000040030CA
:0E000000000C1F1EFF8381FF0FC00FE00F409A
:00000001FF
