:10000000F8EF00F00000000000EF00F0000000003A
:0A0010000000000000000000F3D71C
:0C001C00000000000000000000001200C6
:10002800240E0C6EB50E0D6E0D2EFED70C2EFCD7C1
:06003800000000001200B0
:0A003E00530E0D6E0D2EFED71200BA
:1000480037BE02D0839E01D0838E37BC02D0839CFA
:1000580001D0838C37BA02D0839A01D0838A37B80B
:1000680002D0839801D0838830B002D0848001D038
:1000780084908484CFDF849437B602D0839E01D0E5
:10008800838E37B402D0839C01D0838C37B202D0E0
:10009800839A01D0838A37B002D0839801D08388AD
:1000A80030B002D0848001D084908484B3DF8494FB
:0C00B80030A002D0B5DF01D0BEDF120086
:0C00C400309036C037F0BEDF30801200F4
:1000D0000900F5CFE6FF0006FBE10106F9E1120099
:1000E000969496909598959A959C959E84948490D4
:1000F000839E839C839A839897DF96DF95DF838A1C
:10010000838884848BDF84948FDF848487DF849466
:100110008BDF848483DF849487DF839884847EDF0D
:10012000849482DF84847ADF8494839A838E8484A7
:1001300075DF849479DF839E838884846FDF849461
:10014000839884846BDF84946FDF848467DF849476
:100150008388848463DF849467DF839884845EDF8C
:100160008494838E838C838A8388848457DF8494E9
:060170005BDF308012008D
:100176000FD0800E316E19D0C00E316E16D0940E8F
:10018600316E13D0D40E316E10D0800E316E0DD07C
:100196003150010AEEE03150020AEEE03150030A16
:1001A600EEE03150040AEEE0F0D73204006E315032
:1001B600002600C031F000C037F043DF3090356ACA
:1001C60035503324E96E000E3420EA6EEE520BE011
:1001D60035503324E96E000E3420EA6EEECF36F049
:0A01E6006EDF352AEDD730801200DD
:1001F00038EC01F00F0EC16E73DF820E0C6EDD0E57
:100200000D6E0D2EFED70C2EFCD700000000010E47
:10021000376E1ADF820E0C6EDD0E0D6E0D2EFED7C0
:100220000C2EFCD700000000010E316E010E326E64
:10023000150E336E000E346E9EDF020E316E010E0F
:10024000326E240E336E000E346E95DF1C0E376E48
:04025000FBDEFFD7FB
:1002700010EE15F01B0E006E010E016E540EF66EA0
:0E028000020EF76E000EF86E68EC00F0120031
:0F02540054657374696E67204D494B524F4500D6
:0C0263004C4344204C69627261727900C7
:020000040030CA
:0E000000000C1F1EFF8381FF0FC00FE00F409A
:00000001FF
