:0400000035EF02F0E6
:0E000800F2A204D0F292F298154A162A1100C4
:10001600240E0C6EB50E0D6E0D2EFED70C2EFCD7D3
:06002600000000001200C2
:0C002C00000000000000000000001200B6
:0A003800530E0D6E0D2EFED71200C0
:1000420051BE02D0839E01D0838E51BC02D0839CCC
:1000520001D0838C51BA02D0839A01D0838A51B8DD
:1000620002D0839801D083883EB002D0848001D030
:1000720084908484DADF849451B602D0839E01D0C6
:10008200838E51B402D0839C01D0838C51B202D0B2
:10009200839A01D0838A51B002D0839801D0838899
:1000A2003EB002D0848001D084908484BEDF8494E8
:0C00B2003EA002D0AFDF01D0BEDF120084
:1000BE00086A096A100E0C6E0134083609360450AF
:1000CE00085E0550D8A0053C095ED8B007D0045094
:1000DE0008260550D8B0053C0926D89000360136C2
:0600EE000C2EEAD71200FF
:0C00F4003E9050C051F0A3DF3E8012008F
:100100000FD0800E496E19D0C00E496E16D0940ED5
:10011000496E13D0D40E496E10D0800E496E0DD0AA
:100120004950010AEEE04950020AEEE04950030A44
:10013000EEE04950040AEEE0F0D74A04006E495060
:10014000002600C049F000C051F07BDF3E904D6AB0
:100150004D504B24E96E000E4C20EA6EEE520BE03F
:100160004D504B24E96E000E4C20EA6EEECF50F05D
:0A017000C1DF4D2AEDD73E801200DA
:10017A004D6A050E4D5C0AE24D504B24E16E000EAD
:10018A004C20E26E200EE66E4D2AF3D74D504B24DA
:10019A00E16E000E4C20E26EE66A4D064D504B248D
:1001AA004E6E000E4C204F6E0A0E046E000E056E47
:1001BA0049C000F04AC001F07DDF08C000F009C064
:1001CA0001F0300E00264EC0E1FF4FC0E2FF00C032
:1001DA00E6FF0A0E046E000E056E49C000F04AC022
:1001EA0001F068DF00C049F001C04AF0000E0118B2
:1001FA0002E1000E001801E102D04D06CFD712002D
:10020A002250020A0EE0020E226E010E516E14DF17
:10021A00010E496E010E4A6E170E4B6E000E4C6EA1
:04022A006ADF120075
:10022E000900F5CFE6FF0006FBE10106F9E1120039
:10023E00969496909598959A959C959E8494849074
:10024E00839E839C839A8398DFDEDEDEDDDE838AE7
:10025E0083888484E4DE8494D7DE8484E0DE849410
:10026E00D3DE8484DCDE8494CFDE83988484D7DE70
:10027E008494CADE8484D3DE8494839A838E8484A9
:10028E00CEDE8494C1DE839E83888484C8DE84940B
:10029E0083988484C4DE8494B7DE8484C0DE849420
:1002AE0083888484BCDE8494AFDE83988484B7DE36
:1002BE008494838E838C838A83888484B0DE849432
:0602CE00A3DE3E801200D9
:0A02D400F288F292F28CF28E120012
:1002DE00456A466A3FC047F040C048F0800E40185D
:1002EE00006E800E005C02E1000E3F5C0BE2010E20
:1002FE00456E000E466E3F500008476E40C048F0F7
:10030E00000E485647C049F048C04AF041C04BF075
:10031E0042C04CF02BDF060E436E000E446E000EF4
:10032E00006E4450005C02E14350000819E2435055
:10033E004124E16E44504220E26E010E435C006E99
:10034E00000E4458016E00504124E96E01504220C7
:10035E00EA6EEECFE6FF010E435E000E445ADFD783
:10036E0041C0E1FF42C0E2FF200EE66E455046104E
:10037E001AE0436A446A43504124E96E44504220D5
:10038E00EA6EEE50200A03E1434A442AF4D7010EE6
:10039E00435E000E445A43504124E16E44504220C5
:0803AE00E26E2D0EE66E120056
:1003B6002250010A0EE0010E226E010E516E3EDE43
:1003C600010E496E010E4A6E230E4B6E000E4C6EE8
:0403D60094DE12009F
:1003DA002250000A0DE0226A010E516E2DDE010E36
:1003EA00496E010E4A6E2E0E4B6E000E4C6E83DE67
:0203FA001200EF
:1003FC00416A426A3FC003F040C004F03FC005F0C0
:10040C0040C006F003C0E9FF04C0EAFFEE50200A2A
:10041C0004E14150421001E110D0010E416E000E7A
:10042C00426E03C0E9FF04C0EAFF05C0E1FF06C04D
:10043C00E2FFEECFE6FF054A062A03C001F004C036
:10044C0002F0034A042A01C0E9FF02C0EAFFEE50A1
:0E045C00000AD8E13FC000F040C001F01200DD
:10046A00ADEC02F00F0EC16E93802FDFE3DE410E7A
:10047A000C6EEE0E0D6E0D2EFED70C2EFCD7000064
:10048A000C0E516ED9DD15C03FF016C040F0350E86
:10049A00416E000E426E1EDF350E3F6E000E406E3C
:1004AA00A8DF00C03CF001C03DF0020E496E010E0B
:1004BA004A6E00C04BF001C04CF01DDEC30E0C6E3C
:1004CA00CD0E0D6E0D2EFED70C2EFCD709D080DF77
:1004DA001FD06CDF1DD094DE1BD0156A166A18D0A7
:1004EA00000E161802E1000E1518F1E0000E16189B
:1004FA0002E1010E1518EDE0000E161802E1020ED7
:10050A001518E9E0000E161802E1030E1518E5E0C9
:10051A00F2B80CD0C30E0C6ECD0E0D6E0D2EFED79A
:10052A000C2EFCD781B002D0F292F288ACD7FFD75A
:10055A0010EE15F0200E006E010E016E3A0EF66EC8
:0E056A00050EF76E000EF86E17EC01F0120091
:02053A000000BF
:0B053C004D616E7574656E63616F00A9
:01054700FFB4
:0B054800456D657267656E63696100B8
:0705530050726F6E746F001F
:020000040030CA
:0E000000000C1F1EFF8381FF0FC00FE00F409A
:00000001FF
