:100000007CEF00F00000000000EF00F000000000B6
:0A0010000000000000000000F3D71C
:10001C008D84410E0C6EEE0E0D6E0D2EFED70C2E39
:10002C00FCD70000FB0E8D16410E0C6EEE0E0D6E05
:0C003C000D2EFED70C2EFCD70000120089
:10004800FE0E8D16410E0C6EEE0E0D6E0D2EFED7A9
:0E0058000C2EFCD7000038C08CFFDCDF12003D
:10006600366A376A8D80366A376A36503424E96EC6
:1000760037503520EA6EEE50000A0CE03650342434
:10008600E96E37503520EA6EEECF8CFFC4DF364A74
:06009600372AEBD712002F
:10009C000900F5CFE6FF0006FBE10106F9E11200CD
:1000AC00F80E9616956A410E0C6EEE0E0D6E0D2E18
:1000BC00FED70C2EFCD70000380E386E000E396EB1
:1000CC00BDDF0C0E386E000E396EB8DF0F0E386EB9
:1000DC00000E396EB3DF020E386E000E396EAEDFD5
:0C00EC00010E386E000E396EA9DF120004
:1000F8009DEC00F00F0EC16ED5DF010E306E000EC4
:10010800316E010E326E000E336E150E346E000E17
:06011800356EA5DFFFD7E4
:10013A0010EE15F01B0E006E010E016E1E0EF66E0D
:0E014A00010EF76E000EF86E4EEC00F0120083
:10011E0054657374616E646F206D696E68612062E0
:0B012E0069626C696F746563612100F9
:020000040030CA
:0E000000000C1F1EFF8381FF0FC00FE00F409A
:00000001FF
