:10000000A8EF00F00000000000EF00F0000000008A
:0A0010000000000000000000F3D71C
:10001C008D84410E0C6EEE0E0D6E0D2EFED70C2E39
:10002C00FCD70000FB0E8D16410E0C6EEE0E0D6E05
:0C003C000D2EFED70C2EFCD70000120089
:10004800FE0E8D16410E0C6EEE0E0D6E0D2EFED7A9
:0E0058000C2EFCD7000024C08CFFDCDF120051
:10006600226A236A060E026E1EC000F01FC001F04F
:10007600025005E0003600900136FF0FFAD7400E19
:10008600005E000E015A800E0024026E000E012052
:10009600036E010E1C5C006E000E1D58016EFE0EF6
:1000A6008D16005002248C6EB6DF410E0C6EEE0EDD
:1000B6000D6E0D2EFED70C2EFCD700008D80226A09
:1000C600236A22502024E96E23502120EA6EEE5046
:1000D600000A0CE022502024E96E23502120EA6E0B
:0E00E600EECF8CFF98DF224A232AEBD71200C0
:1000F4000900F5CFE6FF0006FBE10106F9E1120075
:10010400F80E9616956A410E0C6EEE0E0D6E0D2EBF
:10011400FED70C2EFCD70000380E246E000E256E80
:1001240091DF0C0E246E000E256E8CDF0F0E246EF4
:10013400000E256E87DF020E246E000E256E82DF10
:0C014400010E246E000E256E7DDF1200FF
:10015000770E156E610E166E730E176E730E186E97
:10016000750E196E700E1A6E1B6A0F0EC16ECADF05
:10017000080E1C6E000E1D6E020E1E6E000E1F6E0F
:0C018000150E206E000E216E6EDFFFD702
:020000040030CA
:0E000000000C1F1EFF8381FF0FC00FE00F409A
:00000001FF
