:10000000FEEF01F00000000000EF00F00000000033
:0A0010000000000000000000F3D71C
:0C001C00000000000000000000001200C6
:10002800240E0C6EB50E0D6E0D2EFED70C2EFCD7C1
:06003800000000001200B0
:0A003E00530E0D6E0D2EFED71200BA
:10004800086A096A100E0C6E013408360936045025
:10005800085E0550D8A0053C095ED8B007D004500A
:1000680008260550D8B0053C0926D8900036013638
:060078000C2EEAD7120075
:10007E003BBE02D0839E01D0838E3BBC02D0839CBC
:10008E0001D0838C3BBA02D0839A01D0838A3BB8CD
:10009E0002D0839801D0838829B002D0848001D009
:1000AE0084908484B4DF84943BB602D0839E01D0C6
:1000BE00838E3BB402D0839C01D0838C3BB202D0A2
:1000CE00839A01D0838A3BB002D0839801D0838873
:1000DE0029B002D0848001D08490848498DF8494E7
:0C00EE0029A002D09ADF01D0A3DF12008D
:0C00FA00299034C03BF0BEDF29801200CA
:10010600386A050E385C0AE238503624E16E000E75
:100116003720E26E200EE66E382AF3D738503624A2
:10012600E16E000E3720E26EE66A38063850362455
:10013600396E000E37203A6E0A0E046E000E056EFA
:1001460034C000F035C001F07CDF08C000F009C003
:1001560001F0300E002639C0E1FF3AC0E2FF00C0D0
:10016600E6FF0A0E046E000E056E34C000F035C0C0
:1001760001F067DF00C034F001C035F0000E011851
:1001860002E1000E001801E102D03806CFD71200B6
:100196000900F5CFE6FF0006FBE10106F9E11200D2
:1001A600969496909598959A959C959E849484900D
:1001B600839E839C839A839834DF33DF32DF838A7E
:1001C6008388848428DF84942CDF848424DF8494C9
:1001D60028DF848420DF849424DF839884841BDFD3
:1001E60084941FDF848417DF8494839A838E8484A7
:1001F60012DF849416DF839E838884840CDF8494C4
:100206008398848408DF84940CDF848404DF8494D8
:100216008388848400DF849404DF83988484FBDEEF
:100226008494838E838C838A83888484F4DE849486
:06023600F8DE2980120031
:10023C00306A316A2AC032F02BC033F0800E2B1892
:10024C00006E800E005C02E1000E2A5C0BE2010ED7
:10025C00306E000E316E2A500008326E2BC033F017
:10026C00000E335632C034F033C035F02CC036F0AB
:10027C002DC037F042DF060E2E6E000E2F6E000ED4
:10028C00006E2F50005C02E12E50000819E22E5037
:10029C002C24E16E2F502D20E26E010E2E5C006E90
:1002AC00000E2F58016E00502C24E96E01502D20A9
:1002BC00EA6EEECFE6FF010E2E5E000E2F5ADFD750
:1002CC002CC0E1FF2DC0E2FF200EE66E3050311045
:1002DC001AE02E6A2F6A2E502C24E96E2F502D20F6
:1002EC00EA6EEE50200A03E12E4A2F2AF4D7010EB3
:1002FC002E5E000E2F5A2E502C24E16E2F502D20E6
:08030C00E26E2D0EE66E1200F8
:100314000FD0800E2A6E19D0C00E2A6E16D0940EFD
:100324002A6E13D0D40E2A6E10D0800E2A6E0DD0F1
:100334002A50010AEEE02A50020AEEE02A50030A8B
:10034400EEE02A50040AEEE0F0D72B04006E2A50A7
:10035400002600C02AF000C03BF08FDE29902E6AF0
:100364002E502C24E96E000E2D20EA6EEE520BE086
:100374002E502C24E96E000E2D20EA6EEECF34F0C0
:0A038400BADE2E2AEDD72980120000
:10038E002C6A2D6A2AC003F02BC004F02AC005F097
:10039E002BC006F003C0E9FF04C0EAFFEE50200AAE
:1003AE0004E12C502D1001E110D0010E2C6E000E28
:1003BE002D6E03C0E9FF04C0EAFF05C0E1FF06C0D1
:1003CE00E2FFEECFE6FF054A062A03C001F004C0A5
:1003DE0002F0034A042A01C0E9FF02C0EAFFEE5010
:0E03EE00000AD8E12AC000F02BC001F0120076
:1003FC00156A166A3A0E176E186A196A1A6A0F0E7F
:10040C00C16E969293808D92C8DE0C0E3B6E31DEDF
:10041C0081B021D0150E0B6E4B0E0C6EBE0E0D6EF8
:10042C000D2EFED70C2EFCD70B2EFAD70000154A3A
:10043C00162A000E161802E13C0E151804E1156A76
:10044C00166A194A1A2A000E1A1802E13C0E1918DB
:10045C0002E1196A1A6A15C02AF016C02BF01B0E9D
:10046C002C6E000E2D6EE4DE19C02AF01AC02BF093
:10047C00220E2C6E000E2D6EDBDE800E1A18006E16
:10048C00800E005C02E10A0E195C02E2300E266E50
:10049C00800E1618006E800E005C02E10A0E155CD0
:1004AC0002E2300E1F6E220E2A6E000E2B6E69DFDA
:1004BC001B0E2A6E000E2B6E64DF010E2A6E010ECF
:1004CC002B6E220E2C6E000E2D6E1EDF010E2A6E70
:1004DC00030E2B6E170E2C6E000E2D6E15DF010EFB
:1004EC002A6E040E2B6E1B0E2C6E000E2D6E0CDF66
:0404FC008FD7FFD7C0
:020000040030CA
:0E000000000C1F1EFF8381FF0FC00FE00F409A
:00000001FF
