:100000000EEF00F00000000000EF00F00000000024
:0A0010000000000000000000F3D71C
:10001C00C00E156EF90E166EA40E176EB00E186E7D
:10002C00990E196E920E1A6E820E1B6EF80E1C6EC5
:10003C00800E1D6E980E1E6E1F6A956A010E936ED1
:10004C000F0EC16E81B01F2A0A0E1F5CD8B01F6A3A
:10005C00150EE96E000EEA6E1F50E926D8B0EA2A9A
:10006C00EECF8CFF0D0E0B6EAF0E0C6EB60E0D6E32
:10007C000D2EFED70C2EFCD70B2EFAD70000E2D794
:02008C00FFD79C
:020000040030CA
:0E000000000C1F1EFF8381FF0FC00FE00F409A
:00000001FF
