:040000007DEF00F0A0
:1000080000C01AF001C019F002C018F00BC017F0B8
:100018000CC016F00DC015F0F2A228D0000E26185C
:1000280002E1000E251822E1010E256E000E266E53
:10003800030E0B6E8A0E0C6E550E0D6E0D2EFED72E
:100048000C2EFCD70B2EFAD70000000027C000F0BA
:1000580028C001F0FF0E046EFF0E056E1AD800C00E
:1000680027F001C028F0256A266AF2921AC000F02B
:1000780019C001F018C002F017C00BF016C00CF040
:0600880015C00DF011008F
:0C008E00F292F19CF288F292F28E1200C5
:10009A000B6A0A6A096A00500402F4CF09F0F3CF26
:1000AA0008F001500502F4CF0BF0F3CF0AF000502C
:1000BA000502F3500926F4500A22E86A0B2201507D
:1000CA000402F3500926F4500A22E86A0B2208C0F7
:1000DA0000F009C001F00AC002F00BC003F01200E0
:1000EA000900F5CFE6FF0006FBE10106F9E112007F
:1000FA00C2EC00F00F0EC1129380956AF19E8C6AD1
:10010A00C1DF27502924016E28502A20026E01C01F
:10011A0029F002C02AF0FF0E021802E1FF0E0118B0
:10012A0005E1090E296E000E2A6E08D0000E2A1863
:10013A0002E10A0E291802E1296A2A6A1B0E2924F9
:10014A00E96E000E2A20EA6EEECF8CFF1A0E0B6EB5
:10015A005E0E0C6E6E0E0D6E0D2EFED70C2EFCD79B
:0A016A000B2EFAD70000CDD7FFD707
:1001840010EE1BF0100E006E010E016E740EF66E72
:0E019400010EF76E000EF86E75EC00F0120012
:0A0174003F065B4F666D7D077F6755
:02017E0000007F
:02018000FFFF7F
:0201820000007B
:020000040030CA
:0E000000000C1F1EFF8381FF0FC00FE00F409A
:00000001FF
