:0400000059EF00F0C4
:1000080000C018F001C017F002C016F00BC015F0C0
:10001800F29223C000F024C001F0FF0E046EFF0E20
:10002800056E13D800C023F001C024F018C000F0FA
:0E00380017C001F016C002F015C00BF0110049
:0C004600F292F19CF288F292F28E12000D
:100052000B6A0A6A096A00500402F4CF09F0F3CF6E
:1000620008F001500502F4CF0BF0F3CF0AF0005074
:100072000502F3500926F4500A22E86A0B220150C5
:100082000402F3500926F4500A22E86A0B2208C03F
:1000920000F009C001F00AC002F00BC003F0120028
:1000A2000900F5CFE6FF0006FBE10106F9E11200C7
:1000B2003F0E196E060E1A6E5B0E1B6E4F0E1C6EF5
:1000C200660E1D6E6D0E1E6E7D0E1F6E070E206E6D
:1000D2007F0E216E670E226EFF0E236EFF0E246EC0
:1000E200256A266A0F0EC1129380956AF19E8C6A68
:1000F200A9DF23502524016E24502620026E01C060
:1001020025F002C026F0FF0E021802E1FF0E0118D0
:1001120005E1090E256E000E266E08D0000E261887
:1001220002E10A0E251802E1256A266A190E252423
:10013200E96E000E2620EA6EEECF8CFF1A0E0B6ED1
:100142005E0E0C6E6E0E0D6E0D2EFED70C2EFCD7B3
:0A0152000B2EFAD70000CDD7FFD71F
:020000040030CA
:0E000000000C1F1EFF8381FF0FC00FE00F409A
:00000001FF
