:10000000E0EF04F00000000000EF00F0000000004E
:0A0010000000000000000000F3D71C
:10001C000B840BAE19EF00F0010E036E026A016A3D
:0A002C00006A0A360232FF0E1200CD
:080036000AAE029E000E12004A
:10003E008D84410E0C6EEE0E0D6E0D2EFED70C2E17
:10004E00FCD70000FB0E8D16410E0C6EEE0E0D6EE3
:0C005E000D2EFED70C2EFCD70000120067
:0E006A00026A016A006A086A036A000E120048
:100078000B820BAE46EF00F0036802680168006867
:080088000A360232FF0E1200DD
:10009000FE0E8D16410E0C6EEE0E0D6E0D2EFED761
:0E00A0000C2EFCD7000047C08CFFC9DF1200F9
:1000AE000C6A0E6A0250D8A470EF00F001C002F084
:1000BE0000C001F0006A0E860250D8A470EF00F066
:1000CE0001C002F0016A0E960E880250D8B482EF7B
:1000DE0000F00E50035ED8A4D8A087EF00F0D890A1
:1000EE0002BE8CEF00F0003601360236032E77EF9B
:1000FE0000F087EF00F0010E0C6EB0DF8FEF00F016
:10010E00020E0C6E84DF8FEF00F0040E0C6E8CDF8F
:02011E001200CD
:10012000086A096A000E0762036415EF01F00250C5
:1001300006180A6E075003267E0ED8A0A6EF00F020
:10014000035ED8B019EF01F0AAEF00F0035ED8A06B
:100150001DEF01F0028E068E02C00EF001C00BF002
:1001600000C00DF000500402F4CF0CF00150050265
:10017000F4CF00F0F3CF08F00402F3500C26F45053
:100180000822000E00220D500502F3500C26F450F8
:100190000822000E002202500402F3500826F450F8
:1001A000002202500502016A000E0122F3500026CF
:1001B000F45001220D500602F3500826F45000229C
:1001C000026A000E012202220B500602F3500026A2
:1001D000F4500122000E02220E500602F3500126B6
:1001E000F450022202BEFDEF00F008360036013660
:1001F00002360306D8B41DEF01F010EF01F0D880ED
:10020000800E08640030000E002201220222D8A0D5
:1002100010EF01F0023201320032034A19EF01F00F
:100220000AAE029E000E1FEF01F0010E1EDF1FEF4F
:1002300001F0020E21DF1FEF01F0040EEFDE1200CD
:100240000A6A0350D8A40A800750D8A40A820A5028
:10025000D8B483EF01F0030AD8B43CEF01F00AB040
:1002600037EF01F006AE81EF01F07FEF01F002AE53
:100270007FEF01F081EF01F00250800B0A6E029EC9
:100280000650800B069E0A18D8B44DEF01F00A50B4
:10029000D8B47FEF01F081EF01F00750035CD8B4D0
:1002A00057EF01F0D8A073EF01F079EF01F006509D
:1002B000025CD8B461EF01F0D8A073EF01F079EFE0
:1002C00001F00550015CD8B46BEF01F0D8A073EFDA
:1002D00001F079EF01F00450005CD8B483EF01F035
:1002E000D8B079EF01F00A52D8B481EF01F07FEF76
:1002F00001F00A52D8B47FEF01F081EF01F0D8800D
:0E0300001200D8901200D880D884120012008B
:10030E0047C004F048C005F004C002F005C003F079
:10031E00044A052A49C000F04AC001F0494A4A2A57
:10032E0000C0E9FF01C0EAFF02C0E1FF03C0E2FF27
:10033E00EECFE6FF02C0E9FF03C0EAFFEE5201E096
:0C034E00E3D747C000F048C001F01200E7
:10035A000D6A086A0050D8B4000C04180A6E0ABE66
:10036A000D1E0B6A04AE02D0041E042A00AE02D08F
:10037A00001E002A005004100A6E0ABE1FD0045044
:10038A00085E003600340836045008260036060E89
:10039A000C6E00340836045000B0085E00A008262F
:1003AA0000360C2EF6D700A008260BB015D00DAEDD
:1003BA00000C001E002A081E082A000C04AE09D0F0
:1003CA0000BE04D00050086E006AF1D7006A002A05
:1003DA00000C001E0B2AD3D7082A0450085CD8A4A4
:0E03EA00E6D7086A002A00AEE2D7FF0C120028
:0C03F800240E0D6E0D2EFED7000012002A
:100404003F6A406A060E026E3BC000F03CC001F039
:10041400025005E0003600900136FF0FFAD7400E77
:10042400005E000E015A800E0024026E000E0120B0
:10043400036E010E395C006E000E3A58016EFE0E1A
:100444008D16005002248C6EF8DD410E0C6EEE0EFB
:100454000D6E0D2EFED70C2EFCD700008D803F6A4A
:10046400406A3F503D24E96E40503E20EA6EEE5013
:10047400000A0CE03F503D24E96E40503E20EA6EF5
:0E048400EECF8CFFDADD3F4A402AEBD71200A4
:10049200F80E9616956A410E0C6EEE0E0D6E0D2E2E
:1004A200FED70C2EFCD70000380E476E000E486EA9
:1004B200EEDD0C0E476E000E486EE9DD0F0E476E44
:1004C200000E486EE4DD020E476E000E486EDFDD60
:0C04D200010E476E000E486EDADD1200CD
:1004DE000900F5CFE6FF0006FBE10106F9E1120087
:1004EE00FF0E256EFF0E266EFF0E276EFF0E286E78
:1004FE00C26A241C006E0050C116070EC012C08EB8
:04050E00C280120095
:1005120003500718D8A49DEF02F002500618D8A481
:100522009DEF02F001500518D8A49DEF02F0005093
:0E0532000418D8B4D8841200D8941200120015
:10054000456A466A39C041F03AC042F03BC043F0C8
:100550003CC044F04450FF0A08E14350FF0A05E163
:100560004250FF0A02E14150FF0A0CE13DC047F052
:100570003EC048F0150E496E000E4A6EC8DE030EEE
:10058000006EE9D1010E3F6E43AE0ED0800E4318CF
:10059000006E00C043F03F2A3DC0E1FF3EC0E2FFD5
:1005A0002D0EE66E3D4A3E2A000E006E441808E10C
:1005B0000050431805E10050421802E14150000A82
:1005C0000BE13DC047F03EC048F0190E496E000EE9
:1005D0004A6E9DDE006ABFD14450FF0A08E14350D5
:1005E000000A05E14250000A02E14150000A0CE114
:1005F0003DC047F03EC048F01B0E496E000E4A6EEB
:1006000086DE3FC000F0A7D1000E046E000E056E1E
:10061000000E066E7F0E076E41C000F042C001F072
:1006200043C002F044C003F00BDE010ED8B0000E50
:10063000006E00521BE041C000F042C001F043C018
:1006400002F044C003F0000E046E000E056E200E92
:10065000066E820E076E64DD00C041F001C042F0FC
:1006600002C043F003C044F04606CED7000E046E2D
:10067000000E056E200E066E820E076E41C000F061
:1006800042C001F043C002F044C003F0D9DD000EC7
:10069000D8B0010E006E00521BE041C000F042C015
:1006A00001F043C002F044C003F0CD0E046ECC0E46
:1006B000056E4C0E066E7B0E076E32DD00C041F0FB
:1006C00001C042F002C043F003C044F0462ACED736
:1006D000FF0E4114086EFF0E4214096E7F0E431484
:1006E0000A6E000E44140B6E08C004F009C005F039
:1006F0000AC006F00BC007F0043604900536063633
:100700000736000E4114006E000E4214016E000EFA
:100710004314026EFF0E4414036E00C041F001C08A
:1007200042F002C043F003C044F004504110006E98
:1007300005504210016E06504310026E07504410DF
:10074000036E00C041F001C042F002C043F003C09C
:1007500044F07F0E445C006E00C040F0010E446E19
:1007600000C004F041C000F042C001F043C002F0FC
:1007700044C003F0045007E0003600900136023612
:100780000336FF0FF8D700C041F001C042F002C0AD
:1007900043F003C044F03DC0E1FF3EC0E2FF4450DF
:1007A000300FE66E3D4A3E2A800E4618006E800EDF
:1007B000010A005C08E3800E060A006E800E4618EF
:1007C000005C01E30AD03DC0E1FF3EC0E2FF2E0E17
:1007D000E66E3D4A3E2A010E456E060E406E4050C2
:1007E000000A54E0446A41C000F042C001F043C036
:1007F00002F044C003F000360090013602360336A2
:100800000036009001360236033641500026425031
:100810000122435002224450032200C041F001C093
:1008200042F002C043F003C044F041C000F042C0B7
:1008300001F043C002F044C003F0003600900136DE
:100840000236033600C041F001C042F002C043F05E
:1008500003C044F03DC0E1FF3EC0E2FF4450300F12
:10086000E66E3D4A3E2A4550000A0EE146064650D5
:10087000000A0AE13DC0E1FF3EC0E2FF2E0EE66E37
:100880003D4A3E2A010E456E4006A9D7FF0E3D2483
:10089000E96EFF0E3E20EA6EEE50300A05E1010ED1
:1008A0003D5E000E3E5AF2D7FF0E3D24E96EFF0E6C
:1008B0003E20EA6EEE502E0A04E1010E3D5E000E6F
:1008C0003E5A4650000A41E03DC0E1FF3EC0E2FF13
:1008D000650EE66E3D4A3E2A800E4618006E800E7A
:1008E000000A005C0BE23DC0E1FF3EC0E2FF2D0EBE
:1008F000E66E3D4A3E2A46500008466E46C040F02D
:10090000800E090A006E800E4618005C0EE20A0E88
:10091000046E40C000F021DD3DC0E1FF3EC0E2FFBB
:100920000050300FE66E3D4A3E2A0A0E046E40C06B
:1009300000F013DD08C000F03DC0E1FF3EC0E2FF63
:100940000050300FE66E3D4A3E2A3DC0E1FF3EC0FA
:08095000E2FFE66A006A1200F2
:10095800C26A241C006E0050C116070EC012C08E59
:1009680039C000F000360090003600900050C212E6
:10097800C2803EDDC282C2A201D0FDD7C4CF01F041
:0E098800006AC3500012000E0112C29012004D
:100996000050086E0150006E016A026A036A0B6A13
:1009A6000C6A960E036E0A6A00C001F008C000F0D9
:0A09B600086A026A57EC00F0120014
:1009C0004FEC05F01F0E296E000E2A6E2B6A2C6A62
:1009D0002D6A2E6A2F6A306A316A326A336A346A43
:1009E000356A366A376A386A0E0EC16E52DD7FDDAF
:1009F000396AB2DFD0DF00C035F001C036F002C086
:100A000037F003C038F031C004F032C005F033C015
:100A100006F034C007F07DDD000ED8A4010E006E94
:100A2000005222E035C031F036C032F037C033F02A
:100A300038C034F035C039F036C03AF037C03BF03A
:100A400038C03CF029C03DF02AC03EF079DD010EEF
:100A5000396E000E3A6E010E3B6E000E3C6E29C0E0
:100A60003DF02AC03EF0CEDC410E0C6EEE0E0D6E57
:0E0A70000D2EFED70C2EFCD70000BAD7FFD7F4
:100A9E0010EE15F0100E006E010E016E8E0EF66E3B
:0E0AAE000A0EF76E000EF86E6FEC02F01200EA
:080A7E001F0000000000000051
:040A8600000000006C
:040A8A000000000068
:040A8E004E614E0067
:020A9200300032
:040A9400494E460081
:050A9800303030300099
:010A9D003028
:020000040030CA
:0E000000000C1F1EFF8381FF0FC00FE00F409A
:00000001FF
