:10000000C3EF06F00000000000EF00F00000000069
:0A0010000000000000000000F3D71C
:08001C000AAE029E000E120064
:100024000B820BAE1CEF00F00368026801680068E5
:080034000A360232FF0E120031
:0E003C00026A016A006A086A036A000E120076
:10004A000B840BAE30EF00F0010E036E026A016AF8
:0A005A00006A0A360232FF0E12009F
:10006400240E0C6EB50E0D6E0D2EFED70C2EFCD785
:0600740000000000120074
:0A007A00530E0D6E0D2EFED712007E
:0C0084000000000000000000000012005E
:100090000CB08AEF00F00CA230EF01F00E6A000EF7
:1000A0000264A1EF00F0F00E0214D8A46CEF00F08F
:1000B000023A01380F0B02260138F00B016E0038AE
:1000C0000F0B01260038F00B006E08380F0B0026CE
:1000D0000838F00B086E0E84D89002BE85EF00F051
:1000E00008360036013602360E2A02BE85EF00F0D1
:1000F00008360036013602360E2A02BE85EF00F0C1
:1001000008360036013602360E2A0E50036426EFFA
:1001100001F0035E0BBC08AE2BEF01F0D880800E1F
:1001200008640030000E002201220222D8A02BEF2A
:1001300001F0023201320032034A30EF01F02BEFBE
:1001400001F001C002F000C001F008C000F0086A30
:10015000000E0E860264D8EF00F0F00E0214D8A450
:10016000C0EF00F0023A01380F0B02260138F00B05
:10017000016E00380F0B01260038F00B006E0E8464
:10018000D89002BE85EF00F00036013602360E2A06
:1001900002BE85EF00F00036013602360E2A02BE9E
:1001A00085EF00F00036013602360E2A85EF00F0AA
:1001B00001C002F000C001F0006A000E0E960E8829
:1001C000026405EF01F0F00E0214D8A4F0EF00F085
:1001D000023A01380F0B02260138F00B016E0E8433
:1001E000D89002BE85EF00F0013602360E2A02BE1C
:1001F00085EF00F0013602360E2A02BE85EF00F0D0
:10020000013602360E2A85EF00F001C002F0016AC5
:10021000000E0E86026435EF01F0F00E0214D8A431
:1002200014EF01F0023A0E84D89002BE85EF00F080
:1002300002360E2A02BE85EF00F002360E2A02BEFA
:1002400085EF00F002360E2A85EF00F0010E0C6EED
:10025000FCDE38EF01F0020E0C6EE0DE38EF01F04C
:10026000040E0C6EDFDE38EF01F0080E0C6EE6DED9
:0202700012007A
:100272004ABE02D0839E01D0838E4ABC02D0839CA8
:1002820001D0838C4ABA02D0839A01D0838A4AB8B9
:1002920002D0839801D0838839B002D0848001D003
:1002A20084908484EEDE84944AB602D0839E01D088
:1002B200838E4AB402D0839C01D0838C4AB202D08E
:1002C200839A01D0838A4AB002D0839801D083886E
:1002D20039B002D0848001D084908484D2DE8494A8
:0C02E20039A002D0BEDE01D0C7DE120041
:1002EE000134083609360450085E0550D8A0053C86
:1002FE00095E003601360F0E0C6E013408360936D3
:10030E00045000A006D0085E0550D8A0053C095E3A
:10031E0005D008260550D8B0053C09260036013612
:10032E000C2EEBD700B006D0045008260550D8B0DE
:08033E00053C09260000120035
:100346000C6A0E6A0250D8A4BCEF01F001C002F09C
:1003560000C001F0006A0E860250D8A4BCEF01F07E
:1003660001C002F0016A0E960E880250D8B4CEEF94
:1003760001F00E50035ED8A4D8A0D3EF01F0D890B8
:1003860002BED8EF01F0003601360236032EC3EF67
:1003960001F0D3EF01F0010E0C6E4DDEDBEF01F044
:1003A600020E0C6E4FDEDBEF01F0040E0C6E33DE38
:0203B600120033
:1003B8000B800BAEE8EF01F0026A0AAEFF0E026E88
:0C03C800016E006E0A360232FF0E1200B9
:0C03D400399049C04AF04BDF398012001C
:1003E000025006180E6E086A096A0B6A0350076409
:1003F000E3EF02F006500A6E068E028E03500B6E7B
:100400000750036E000E0B6433EF02F00B50075ED3
:10041000D8B4D4EF02F0070E0764A2EF02F0075E33
:1004200000C008F001C000F002C001F0026A074EEF
:10043000D4EF02F0076477EF02F0075E00C008F027
:1004400001C000F0016A074ED4EF02F0076455EFD7
:1004500002F0075E00C008F0006A074ED4EF02F019
:1004600007643CEF02F00AC002F005C001F004C0CE
:1004700000F0086AFDEF03F0030E076447EF02F097
:10048000075E08380F0B086E074ED4EF02F0D890C5
:100490000832074ED4EF02F0D8900832074ED4EF5E
:1004A00002F0D8900832D4EF02F0030E076466EF32
:1004B00002F0075E08380F0B086E0038F00B0826B4
:1004C00000380F0B006E074ED4EF02F0D8900032C8
:1004D0000832074ED4EF02F0D89000320832074EAF
:1004E000D4EF02F0D89000320832D4EF02F0030EBD
:1004F00007648EEF02F0075E08380F0B086E0038B5
:10050000F00B082600380F0B006E0138F00B0026A8
:1005100001380F0B016E074ED4EF02F0D890013274
:1005200000320832074ED4EF02F0D8900132003288
:100530000832074ED4EF02F0D89001320032083270
:10054000D4EF02F0030E0764BFEF02F0075E083835
:100550000F0B086E0038F00B082600380F0B006EEA
:100560000138F00B002601380F0B016E0238F00B3A
:10057000012602380F0B026E074ED4EF02F0D8901E
:100580000232013200320832074ED4EF02F0D89026
:100590000232013200320832074ED4EF02F0D89016
:1005A0000232013200320832096A000E0EAEC8EF84
:1005B00003F0081E001E011E021E082A002201224E
:1005C0000222C8EF03F00750D8A4E9EF02F0FDEFD4
:1005D00003F0096A02C00AF0028E068E0750035C1F
:1005E000076ED8B4BBEF03F0070E076489EF03F082
:1005F000075E0450096E0550046E0650056E066ACB
:10060000074EBBEF03F0070E07645EEF03F0075ED3
:100610000450096E0550046E056A074EBBEF03F0E7
:10062000070E07643CEF03F0075E0450096E046A8E
:10063000074EBBEF03F0070E076423EF03F00AC079
:1006400002F0FDEF03F0030E07642EEF03F0075EE8
:1006500009380F0B096E074EBBEF03F0D890093233
:10066000074EBBEF03F0D8900932074EBBEF03F003
:10067000D8900932BBEF03F0030E07644DEF03F08F
:10068000075E09380F0B096E0438F00B0926043891
:100690000F0B046E074EBBEF03F0D8900432093203
:1006A000074EBBEF03F0D89004320932074EBBEF80
:1006B00003F0D89004320932BBEF03F0030E076455
:1006C00075EF03F0075E09380F0B096E0438F00B65
:1006D000092604380F0B046E0538F00B0426053884
:1006E0000F0B056E074EBBEF03F0D89005320432B6
:1006F0000932074EBBEF03F0D890053204320932BD
:10070000074EBBEF03F0D890053204320932BBEF3D
:1007100003F0030E0764A6EF03F0075E09380F0B22
:10072000096E0438F00B092604380F0B046E0538E7
:10073000F00B042605380F0B056E0638F00B052666
:1007400006380F0B066E074EBBEF03F0D89006324B
:10075000053204320932074EBBEF03F0D89006325F
:10076000053204320932074EBBEF03F0D89006324F
:10077000053204320932086A000E0EAEC8EF03F0EB
:10078000091E041E051E061E092A04220522062231
:10079000095008260450002205500122065002226A
:1007A0000EBEDFEF03F0D8A0EEEF03F0023201320D
:1007B00000320832033EEEEF03F0F8EF03F0D8B05A
:1007C000F3EF03F0000E081E001E011E021E082A91
:1007D0000022012202220A7EF3EF03F0010E0C6ECA
:1007E00057DCFFEF03F0020E0C6E52DCFFEF03F05C
:1007F000040E0C6E17DCFFEF03F0000E0C6E1200FF
:1008000000C008F00150006E016A026A036A0B6AB8
:100810000C6A016A026A036A960E036E0A6A00AEE7
:1008200018EF04F0081E001E082AD8B4002A0A8E09
:1008300000C001F008C000F0086A026A84DD1200FE
:0C084000240E0D6E0D2EFED700001200DD
:10084C000450000A08E10550000A05E1FF0E006E95
:10085C007F0E016E57D00D6A096A086A01500010AC
:10086C00D8B4000C015005180A6E0ABE0D1E0B6A96
:10087C0005AE05D0041E051E042AD8B4052A01AE07
:10088C0005D0001E011E002AD8B4012A0150051003
:10089C000A6E0ABE10D025DD0BB020D00DAE000CB8
:1008AC00001E011E002AD8B4012A081E091E082A9F
:1008BC00D8B4092A000C05AE0DD001BE07D00150EA
:1008CC00096E0050086E016A006AE8D7016A006A76
:1008DC00002A000C011E001E0B2ADDD7082AD8B4F2
:1008EC00092A0450085CD8A4D9D70550095CD8A4AF
:1008FC00D5D7096A086A002AD8B4012A01AECED726
:06090C000000FF0C1200C8
:10091200086A096A000E076203640EEF05F00250CE
:1009220006180A6E075003267E0ED8A09FEF04F029
:10093200035ED8B013EF05F0A3EF04F0035ED8A076
:1009420018EF05F0028E068E02C00EF001C00BF009
:1009520000C00DF000500402F4CF0CF0015005026B
:10096200F4CF00F0F3CF08F00402F3500C26F45059
:100972000822000E00220D500502F3500C26F450FE
:100982000822000E002202500402F3500826F450FE
:10099200002202500502016A000E0122F3500026D5
:1009A200F45001220D500602F3500826F4500022A2
:1009B200026A000E012202220B500602F3500026A8
:1009C200F4500122000E02220E500602F3500126BC
:1009D200F450022202BEF6EF04F008360036013669
:1009E20002360306D8B418EF05F009EF05F0D880F7
:1009F200800E08640030000E002201220222D8A0DC
:100A020009EF05F0023201320032034A13EF05F01A
:100A12000AAE029E000E1BEF05F0010E1EEC00F066
:100A22001BEF05F0020E12EC00F01BEF05F0040EB6
:060A320025EC00F01200AB
:100A3800C26A321C006E0050C116070EC012C08E6A
:100A48003FC000F000360090003600900050C212FF
:100A5800C280F2DEC282C2A201D0FDD7C4CF01F0AB
:0E0A6800006AC3500012000E0112C29012006C
:100A7600969496909598959A959C959E8494849034
:100A8600839E839C839A839832EC00F032EC00F0CC
:100A960032EC00F0838A8388848442EC00F08494EC
:100AA60032EC00F0848442EC00F0849432EC00F0E6
:100AB600848442EC00F0849432EC00F083988484C1
:100AC60042EC00F0849432EC00F0848442EC00F0B6
:100AD6008494839A838E848442EC00F0849432EC6E
:100AE60000F0839E8388848442EC00F0849483988B
:100AF600848442EC00F0849432EC00F0848442EC6E
:100B060000F084948388848442EC00F0849432EC70
:100B160000F08398848442EC00F08494838E838C66
:100B2600838A8388848442EC00F0849432EC00F05B
:040B360039801200F0
:100B3A00FF0E356EFF0E366EFF0E376EFF0E386EE5
:100B4A00C26A321C006E0050C116070EC012C08E57
:040B5A00C280120043
:100B5E000900F5CFE6FF0006FBE10106F9E1120000
:100B6E00030E456E000E466E3FC043F040C044F08B
:100B7E00030E456E000E466E7F0E006E800E4618FA
:100B8E00005C02E14550FF082DE245504124476EBE
:100B9E0046504220486E0A0E046E000E056E43C08B
:100BAE0000F044C001F04BDE08C000F009C001F0B7
:100BBE00300E002647C0E1FF48C0E2FF00C0E6FF4E
:100BCE000A0E046E000E056E43C000F044C001F024
:100BDE0036DE00C043F001C044F0010E455E000E4B
:100BEE00465ACAD7040E4124E16E000E4220E26E30
:040BFE00E66A120091
:100C02000B6A0350D8B447EF06F002500A6E028E08
:100C12008E0E035E03AE4BEF06F0036C080E035C10
:100C2200D8A026EF06F0036E013602C001F0026A78
:100C3200080E035CD8A026EF06F0036E0136016AA7
:100C42000350D8A4D89030EF06F00350D8B430EF58
:100C520006F0D89002320132032E2AEF06F00BBCC6
:100C620001A03DEF06F0D8A03DEF06F0012AD8B46E
:100C7200022A02BE5AEF06F00AAE60EF06F0021E2A
:100C8200011E012AD8B4022A60EF06F0026A016A44
:100C920060EF06F00B800BAE64EF06F0026A0AAE5C
:100CA20064EF06F0FF0E026E016E0A36023264EF46
:100CB20006F0010E0C6EDCEC01F066EF06F0000EA1
:100CC2000C6E66EF06F0FF0E0C6E0150006E0250C5
:040CD200016E12009D
:100CD6003FC000F040C001F090DD0D0E046E320EF4
:100CE600056E480E066E7B0E076E10DE000E046E55
:100CF600000E056E480E066E850E076EF0EC01F0CE
:020D06001200D9
:100D08000FD0800E3F6E19D0C00E3F6E16D0940ED5
:100D18003F6E13D0D40E3F6E10D0800E3F6E0DD0B4
:100D28003F50010AEEE03F50020AEEE03F50030A4E
:100D3800EEE03F50040AEEE0F0D74004006E3F506A
:100D4800002600C03FF000C04AF039EC01F03990AD
:100D5800436A43504124E96E000E4220EA6EEE5287
:100D68000CE043504124E96E000E4220EA6EEECFBB
:0E0D780049F0EAEC01F0432AECD73980120072
:100D860046EC07F0FD0E9616FD0E8D16FD0E891625
:100D96009280FD0E9216410E0C6EEE0E0D6E0D2E0D
:100DA600FED70C2EFCD70000C5DE62DE3F6A41DEB0
:100DB60000C03FF001C040F08BDF20DF00C033F001
:100DC60001C034F000C03FF001C040F03A0E416E61
:100DD600000E426EC9DE020E3F6E010E406E3A0EE6
:100DE600416E000E426E8DDF070E0C6E7D0E0D6E8F
:100DF6000D2EFED70C2EFCD7800E3418006E800EFA
:100E0600005C02E1960E335C0BE3010E3F6E010EB1
:100E1600406E250E416E000E426E73DF89820BD046
:100E2600010E3F6E010E406E150E416E000E426EB3
:100E360068DFFD0E8916060E0B6E130E0C6EAD0ED8
:100E46000D6E0D2EFED70C2EFCD70B2EFAD70000FA
:100E56000000010E4A6E39EC01F00C0E4A6E39ECB8
:060E660001F0A4D7FFD744
:100E8C0010EE15F0200E006E010E016E6C0EF66E5B
:0E0E9C000E0EF76E000EF86EAFEC05F01200B1
:100E6C004D6F746F72204465736C696761646F00B9
:0D0E7C004D6F746F72204C696761646F00E8
:010E89003038
:020E8A00000066
:020000040030CA
:0E000000000C1F1EFF8381FF0FC00FE00F409A
:00000001FF
