:1000000067EF00F00000000000EF00F000000000CB
:0A0010000000000000000000F3D71C
:10001C008D80020E0B6E450E0C6EA90E0D6E0D2E04
:10002C00FED70C2EFCD70B2EFAD700000000FE0ECC
:10003C008D16020E0B6E450E0C6EA90E0D6E0D2E4E
:10004C00FED70C2EFCD70B2EFAD7000000001200A6
:10005C00156A166A800E1618006E800E005C02E19E
:10006C00110E155C0DE28D84170E1524E96E000E31
:10007C001620EA6EEECF8CFFCBDF154A162AEAD794
:02008C00120060
:10008E00F80E9616956AF80E8D16410E0C6EEE0E43
:10009E000D6E0D2EFED70C2EFCD70000380E8C6E7A
:1000AE00B6DF0F0E8C6EB3DF3A0E8C6EB0DF120021
:1000BE000900F5CFE6FF0006FBE10106F9E11200AB
:0A00CE009FEC00F0DDDFC3DFFFD779
:10013E0010EE15F0660E006E010E016ED80EF66E04
:0E014E00000EF76E000EF86E5FEC00F012006F
:0200D800000026
:1000DA00476F6F646279652C20576F726C642100D8
:1000EA000000000000000000000000000000000006
:1000FA0000000000000000000000000000000000F6
:10010A0000000000000000000000000000000000E5
:10011A0000000000000000000000000000000000D5
:10012A0000000000000000000000000000000000C5
:04013A0000000000C1
:020000040030CA
:0E000000000C1F1EFF8381FF0FC00FE00F409A
:00000001FF
