:1000000081EF00F00000000000EF00F000000000B1
:0A0010000000000000000000F3D71C
:10001C008D84C30E0C6ECD0E0D6E0D2EFED70C2ED8
:10002C00FCD7FB0E8D16C30E0C6ECD0E0D6E0D2E69
:08003C00FED70C2EFCD71200C8
:0A0044008D6A0F0E8C6EE8DF1200CB
:0A004E008D6A010E8C6EE3DF1200D4
:0A0058008D6A020E8C6EDEDF1200CE
:100062000900F5CFE6FF0006FBE10106F9E1120007
:10007200620E0C6E650E0D6E0D2EFED70C2EFCD789
:1000820000000000380E8C6EC8DF070E0C6E7D0E6D
:100092000D6E0D2EFED70C2EFCD7380E8C6EBDDFEA
:0800A200D0DFD4DFD8DF12002B
:1000AA00236A246A8D80236A246A800E2418006ECB
:1000BA00800E005C02E10F0E235C1DE22350212416
:1000CA00E96E24502220EA6EEE507C0A04E1100EFA
:1000DA00236E000E246E23502124E96E2450222020
:1000EA00EA6EEECF00F0000E016E00C08CFF91DFC9
:0800FA00234A242ADAD7120080
:10010200530E156E450E166E430E176E4F0E186E79
:100112004E0E196E440E1A6E530E1B6E7C0E1C6E22
:100122001D6AF80E9616956A8D6A300E1E6E300E96
:100132001F6E7C0E206E9CDF1E0E216E000E226E44
:10014200B3DF150E216E000E226EAEDF1F2A1F5086
:100152003A0A03E1300E1F6E1E2A1E50360A02E1D1
:10016200300E1E6E030E0B6E8A0E0C6E550E0D6E49
:100172000D2EFED70C2EFCD70B2EFAD70000000056
:0801820065DF69DFD9D7FFD763
:020000040030CA
:0E000000000C1F1EFF8381FF0FC00FE00F409A
:00000001FF
