:100000003BEF02F00000000000EF00F000000000F5
:0A0010000000000000000000F3D71C
:0C001C00000000000000000000001200C6
:10002800240E0C6EB50E0D6E0D2EFED70C2EFCD7C1
:06003800000000001200B0
:0A003E00530E0D6E0D2EFED71200BA
:10004800086A096A100E0C6E013408360936045025
:10005800085E0550D8A0053C095ED8B007D004500A
:1000680008260550D8B0053C0926D8900036013638
:060078000C2EEAD7120075
:10007E0036BE02D0839E01D0838E36BC02D0839CC6
:10008E0001D0838C36BA02D0839A01D0838A36B8D7
:10009E0002D0839801D083881BB002D0848001D017
:1000AE0084908484B4DF849436B602D0839E01D0CB
:1000BE00838E36B402D0839C01D0838C36B202D0AC
:1000CE00839A01D0838A36B002D0839801D0838878
:1000DE001BB002D0848001D08490848498DF8494F5
:0C00EE001BA002D09ADF01D0A3DF12009B
:1000FA00969496909598959A959C959E84948490BA
:10010A00839E839C839A83988ADF89DF88DF838A28
:10011A00838884847EDF849482DF84847ADF849473
:10012A007EDF848476DF84947ADF8398848471DF27
:10013A00849475DF84846DDF8494839A838E8484A7
:10014A0068DF84946CDF839E8388848462DF84946E
:10015A00839884845EDF849462DF84845ADF849483
:10016A008388848456DF84945ADF8398848451DF99
:10017A008494838E838C838A838884844ADF8494DC
:06018A004EDF1B80120095
:0C0190001B902FC036F073DF1B801200A4
:10019C00336A050E335C0AE233503124E16E000EF3
:1001AC003220E26E200EE66E332AF3D73350312420
:1001BC00E16E000E3220E26EE66A330633503124D3
:1001CC00346E000E3220356E0A0E046E000E056E73
:1001DC002FC000F030C001F031DF08C000F009C0C2
:1001EC0001F0300E002634C0E1FF35C0E2FF00C044
:1001FC00E6FF0A0E046E000E056E2FC000F030C034
:10020C0001F01CDF00C02FF001C030F0000E01180F
:10021C0002E1000E001801E102D03306CFD7120024
:10022C000900F5CFE6FF0006FBE10106F9E112003B
:10023C000F0EC1129288FB0E94168B84020E96162A
:10024C008D6A55DF0C0E366E14DFD58ED59CD58A93
:0A025C00D588D586D76AD66A12004D
:100266000B6A0A6A096A00500402F4CF09F0F3CF58
:1002760008F001500502F4CF0BF0F3CF0AF000505E
:100286000502F3500926F4500A22E86A0B220150AF
:100296000402F3500926F4500A22E86A0B2208C029
:1002A60000F009C001F00AC002F00BC003F0120012
:1002B6000FD0800E256E19D0C00E256E16D0940E66
:1002C600256E13D0D40E256E10D0800E256E0DD05F
:1002D6002550010AEEE02550020AEEE02550030AF9
:1002E600EEE02550040AEEE0F0D72604006E255015
:1002F600002600C025F000C036F0BEDE1B90296A3D
:1003060029502724E96E000E2820EA6EEE520BE0F3
:1003160029502724E96E000E2820EA6EEECF2FF032
:0A03260034DF292AEDD71B801200F6
:10033000276A286A25C003F026C004F025C005F00E
:1003400026C006F003C0E9FF04C0EAFFEE50200A11
:1003500004E12750281001E110D0010E276E000E95
:10036000286E03C0E9FF04C0EAFF05C0E1FF06C034
:10037000E2FFEECFE6FF054A062A03C001F004C003
:1003800002F0034A042A01C0E9FF02C0EAFFEE506E
:0E039000000AD8E125C000F026C001F01200DE
:10039E002B6A2C6A25C02DF026C02EF0800E261852
:1003AE00006E800E005C02E1000E255C0BE2010E79
:1003BE002B6E000E2C6E255000082D6E26C02EF0D2
:1003CE00000E2E562DC02FF02EC030F027C031F06B
:1003DE0028C032F0DCDE060E296E000E2A6E000EEC
:1003EE00006E2A50005C02E12950000819E22950E3
:1003FE002724E16E2A502820E26E010E295C006E41
:10040E00000E2A58016E00502724E96E0150282054
:10041E00EA6EEECFE6FF010E295E000E2A5ADFD7F6
:10042E0027C0E1FF28C0E2FF200EE66E2B502C10F5
:10043E001AE0296A2A6A29502724E96E2A502820B0
:10044E00EA6EEE50200A03E1294A2A2AF4D7010E59
:10045E00295E000E2A5A29502724E16E2A502820A0
:08046E00E26E2D0EE66E120095
:10047600520E156E500E166E4D0E176E186A196ACC
:100486001A6AD9DE1A0E0B6E5E0E0C6E6E0E0D6EAD
:100496000D2EFED70C2EFCD70B2EFAD70000010E20
:1004A600366EEADDD7CF01F0006AD6500012000E94
:1004B600011200C019F001C01AF0D76AD66A3C0EC4
:1004C600046E000E056ECCDE00C019F001C01AF0F5
:1004D60000C025F001C026F01E0E276E000E286E05
:1004E6005BDF1E0E256E000E266E1FDF00C01CF0A1
:1004F60001C01DF0010E256E010E266E00C027F00C
:1005060001C028F0D5DE010E256E070E266E150EEB
:10051600276E000E286ECCDE196A1A6AB3D7FFD78B
:020000040030CA
:0E000000000C1F1EFF8381FF0FC00FE00F409A
:00000001FF
