:040000004FEF05F0C9
:1000080000C01EF001C01DF002C01CF003C01BF0B0
:1000180004C01AF005C019F008C018F009C017F09C
:100028000AC016F00BC015F0F3CF1FF0F4CF20F084
:10003800F2A21DD0F298F2920001B74BB82B800EB5
:10004800000A006E800EB819005C02E1B75103087F
:10005800010ED8B0000E006E000E016EB7C004F09D
:10006800B8C005F00CD90050B75F0150B85B1FC08D
:10007800F3FF20C0F4FF1EC000F01DC001F01CC03B
:1000880002F01BC003F01AC004F019C005F018C034
:1000980008F017C009F016C00AF015C00BF01100DF
:0C00A8000000000000000000000012003A
:1000B400240E0C6EB50E0D6E0D2EFED70C2EFCD735
:0600C40000000000120024
:0A00CA00530E0D6E0D2EFED712002E
:1000D4000B840BAE75EF00F0010E036E026A016A29
:0A00E400006A0A360232FF0E120015
:0800EE000AAE029E000E120092
:1000F6000001DBBF02D0839E01D0838EDBBD02D020
:10010600839C01D0838CDBBB02D0839A01D0838A87
:10011600DBB902D0839801D08388BCB102D0848039
:1001260001D084908484BDDF8494DBB702D0839EA3
:1001360001D0838EDBB502D0839C01D0838CDBB3E8
:1001460002D0839A01D0838ADBB102D0839801D092
:100156008388BCB102D0848001D084908484A1DFDE
:0E0166008494BCA102D0A3DF01D0ACDF120054
:0E017400026A016A006A086A036A000E12003D
:100182000C6A0E6A0250D8A4DAEF00F001C002F045
:1001920000C001F0006A0E860250D8A4DAEF00F027
:1001A20001C002F0016A0E960E880250D8B4ECEF3C
:1001B20000F00E50035ED8A4D8A0F1EF00F0D89062
:1001C20002BEF6EF00F0003601360236032EE1EFF2
:1001D20000F0F1EF00F0010E0C6ECBDFF9EF00F052
:1001E200020E0C6E76DFF9EF00F0040E0C6E7EDF6D
:0201F2001200F9
:0E01F4000001BC91DAC0DBF07CDFBC811200A0
:100202000B820BAE0BEF01F0036802680168006815
:080212000A360232FF0E120051
:08021A000B6A0B86FF0E1200B7
:100222000134083609360450085E0550D8A0053C52
:10023200095E003601360F0E0C6E0134083609369F
:10024200045000A006D0085E0550D8A0053C095E07
:1002520005D008260550D8B0053C092600360136DF
:100262000C2EEBD700B006D0045008260550D8B0AB
:08027200053C09260000120002
:0C027A00240E0D6E0D2EFED700001200A9
:100286000B6A0A6A096A00500402F4CF09F0F3CF38
:1002960008F001500502F4CF0BF0F3CF0AF000503E
:1002A6000502F3500926F4500A22E86A0B2201508F
:1002B6000402F3500926F4500A22E86A0B2208C009
:1002C60000F009C001F00AC002F00BC003F01200F2
:1002D60000C008F00150006E016A026A036A0B6AE8
:1002E6000C6A016A026A036A960E036E0A6A00AE17
:1002F60083EF01F0081E001E082AD8B4002A0A8ED1
:1003060000C001F008C000F0086A026A37DF120078
:10031600086A096A000E0762036410EF02F00250D1
:1003260006180A6E075003267E0ED8A0A1EF01F02C
:10033600035ED8B014EF02F0A5EF01F0035ED8A07B
:1003460018EF02F0028E068E02C00EF001C00BF00E
:1003560000C00DF000500402F4CF0CF0015005026D
:10036600F4CF00F0F3CF08F00402F3500C26F4505B
:100376000822000E00220D500502F3500C26F45000
:100386000822000E002202500402F3500826F45000
:10039600002202500502016A000E0122F3500026D7
:1003A600F45001220D500602F3500826F4500022A4
:1003B600026A000E012202220B500602F3500026AA
:1003C600F4500122000E02220E500602F3500126BE
:1003D600F450022202BEF8EF01F00836003601366C
:1003E60002360306D8B418EF02F00BEF02F0D880FD
:1003F600800E08640030000E002201220222D8A0DE
:100406000BEF02F0023201320032034A14EF02F01F
:100416000AAE029E000E1AEF02F0010EA8DE1AEFD7
:1004260002F0020EEBDE1AEF02F0040E50DE1200AE
:100436000450000A08E10550000A05E1FF0E006EAF
:100446007F0E016E57D00D6A096A086A01500010C6
:10045600D8B4000C015005180A6E0ABE0D1E0B6AB0
:1004660005AE05D0041E051E042AD8B4052A01AE21
:1004760005D0001E011E002AD8B4012A015005101D
:100486000A6E0ABE10D0CADE0BB020D00DAE000C2C
:10049600001E011E002AD8B4012A081E091E082AB9
:1004A600D8B4092A000C05AE0DD001BE07D0015004
:1004B600096E0050086E016A006AE8D7016A006A90
:1004C600002A000C011E001E0B2ADDD7082AD8B40C
:1004D600092A0450085CD8A4D9D70550095CD8A4C9
:1004E600D5D7096A086A002AD8B4012A01AECED740
:0604F6000000FF0C1200E3
:1004FC000450000A12E10550000A0FE10650000AF0
:10050C000CE10750000A09E1FF0E006EFF0E016EB0
:10051C007F0E026EFF0E036EA4D0086A096A0750A4
:10052C00D8B429EF03F00350D8B42DEF03F00250E8
:10053C0006180A6E028E068E0E6A02C008F001C002
:10054C000CF000C00DF004500D5E0550D8A0053C19
:10055C000C5E0650D8A0063C085E086A0C6A0D6A50
:10056C00D8A0C0EF02F0D89002320132003208322B
:10057C00010E0E6E0750035ED8A0CDEF02F07E0E7A
:10058C000E240326D8B031EF03F0D3EF02F07E0E29
:10059C000E240326D8A035EF03F0180E0B6E0D3683
:1005AC000C3608360036013602360E360450005E24
:1005BC000550D8A0053C015E0650D8A0063C025E52
:1005CC0006340E120EA0EEEF02F00D80F9EF02F0E1
:1005DC00045000260550D8B0053C01260650D8B072
:1005EC00062802260D900B2ED5EF02F01FEF03F01C
:1005FC00D8900036013602360E360450005E055097
:10060C00D8A0053C015E0650D8A0063C025E06341C
:10061C000E10010B0D26D8B00C2AD8B4082AD8A479
:10062C001FEF03F008320C320D32032AD8B431EF2D
:10063C0003F00AAE089E0850026E0C50016E0D506D
:10064C00006E37EF03F0010EE2DD37EF03F0020E20
:10065C008BDD37EF03F0040ECEDD37EF03F0080E21
:04066C0033DD120068
:10067000FF0E0001BD6FFF0EBE6FFF0EBF6FFF0EBE
:10068000C06FC26AB91D006E0050C116070EC012BD
:06069000C08EC2801200C2
:10069600969496909598959A959C959E8494849018
:1006A600839E839C839A839802DD01DD00DD838A25
:1006B60083888484F6DC8494FADC8484F2DC849473
:1006C600F6DC8484EEDC8494F2DC83988484E9DCB2
:1006D6008494EDDC8484E5DC8494839A838E84841C
:1006E600E0DC8494E4DC839E83888484DADC84946E
:1006F60083988484D6DC8494DADC8484D2DC849483
:1007060083888484CEDC8494D2DC83988484C9DC98
:100716008494838E838C838A83888484C2DC8494C5
:08072600C6DC0001BC811200D9
:10072E000B800BAEA3EF03F0026A0AAEFF0E026E51
:0C073E00016E006E0A360232FF0E12003F
:10074A0010D0800E0001D56F1AD0C00ED56F17D009
:10075A00940ED56F14D0D40ED56F11D0800ED56FEC
:10076A000ED00001D551010AECE0D551020AEDE0A4
:10077A00D551030AEDE0D551040AEDE0EFD7D605CD
:10078A00006ED551002600C0D5F000C0DBF0AEDC0B
:10079A00BC91D96BD951D725E96E000ED821EA6EE2
:1007AA00EE520BE0D951D725E96E000ED821EA6E38
:0E07BA00EECFDAF01ADDD92BEDD7BC8112009C
:1007C800CBC000F0CCC001F082DD000E046EC00E7C
:1007D800056E7F0E066E880E076E8CDE000E046EA8
:1007E800000E056E7A0E066E870E076E90DD1200FB
:1007F8000900F5CFE6FF0006FBE10106F9E112006A
:10080800C26A0001B91D006E0050C116070EC01261
:10081800C08ECBC000F0003600900036009000502B
:10082800C212C28026DDC282C2A201D0FDD7C4CFC7
:1008380001F0006AC3500012000E0112C2901200AB
:10084800030E0001D16F000ED26FCBC0CFF0CCC029
:10085800D0F0030ED16F000ED26F800ED219006E49
:10086800800E005C02E1000ED15D2EE3D151CD2552
:10087800D36FD251CE21D46F0A0E046E000E056ECE
:10088800CFC000F0D0C001F0D2DD08C000F009C030
:1008980001F0300E0026D3C0E1FFD4C0E2FF00C053
:1008A800E6FF0A0E046E000E056ECFC000F0D0C041
:1008B80001F0BDDD00C0CFF001C0D0F0010E000195
:0A08C800D15F000ED25BC9D7120009
:1008D200FD0E9616FD0E8D16DDDE410E0C6EEE0E31
:1008E2000D6E0D2EFED70C2EFCD700000C0EDB6F0A
:1008F20001DC0C0EDB6F7BEC00F0010ED56F010EFC
:0E090200D66F250ED76F000ED86F1EDF1200C5
:100910000B6A0350D8B4CEEF04F002500A6E028E78
:100920008E0E035E03AED2EF04F0036C080E035C80
:10093000D8A0ADEF04F0036E013602C001F0026AE8
:10094000080E035CD8A0ADEF04F0036E0136016A17
:100950000350D8A4D890B7EF04F00350D8B4B7EF41
:1009600004F0D89002320132032EB1EF04F00BBC38
:1009700001A0C4EF04F0D8A0C4EF04F0012AD8B459
:10098000022A02BEE1EF04F00AAEE6EF04F0021E16
:10099000011E012AD8B4022AE6EF04F0026A016AB5
:1009A000E6EF04F00B800BAEEAEF04F0026A0AAE49
:1009B000EAEF04F0FF0E026E016E0A360232EAEF31
:1009C00004F0010E0C6EB3DEECEF04F0000E0C6EC2
:1009D000ECEF04F0FF0E0C6E0150006E0250016E41
:0209E000120003
:0A09E200F292F288F19CF28E1200EE
:0409EC0041DE1200D6
:1009F000010E0001DB6F7BEC00F0B7C0B5F0B8C0B2
:100A0000B6F0010ED56F010ED66F240E006E000EEB
:100A1000016EB7C004F0B8C005F035DC250E002427
:100A2000D76F000E0120D86F90DE020ED56F010E39
:100A3000D66F240E006E000E016EB5C004F0B6C075
:100A400005F021DC250E0024D76F000E0120D86FA1
:100A5000100ED727000ED82378DE010E8916240E3B
:100A6000006E000E016EB5C004F0B6C005F00BDCE0
:100A7000250E0026000E0122200E0024D96E000E45
:100A80000120DA6EDE508912220E0024E96E000E7B
:0E0A90000120EA6EEECF21F0EECF22F0120030
:100A9E0008EC06F00E0EC11293809280F10E9216A3
:100AAE00F80E89160FDF9BDF95DF410E0C6EEE0EF2
:100ABE000D6E0D2EFED70C2EFCD70000F2B812D004
:100ACE00040E0B6ECF0E0C6E010E0D6E0D2EFED79C
:100ADE000C2EFCD70B2EFAD70000000081B002D0EE
:100AEE00F292F288B651B81902E1B751B51901E088
:100AFE0078DF2150221035E0CB6B7FDE00C023F073
:100B0E0001C024F000C0CBF001C0CCF056DEF9DEFF
:100B1E0000C0BAF001C0BBF000C023F001C024F049
:100B2E0000C0CBF001C0CCF0C10E0001CD6F000EA5
:100B3E00CE6F83DE020ED56F0A0ED66FC10ED76F43
:100B4E00000ED86FFBDD060E0B6E130E0C6EAD0E87
:100B5E000D6E0D2EFED70C2EFCD70B2EFAD70000E5
:060B6E000000ACD7FFD728
:100C100010EE21F09B0E006E010E016E740EF66E4A
:0E0C20000B0EF76E000EF86EFCEC03F01200E7
:020B740000007F
:020B760000007D
:100B780054454C41203120000000000000000000D6
:100B88004C4544205645524D454C48410000000014
:100B98000200000054454C412032200000000000B3
:100BA800000000004C4544205645524445000000D2
:100BB800000000000400000054454C412033200090
:100BC80000000000000000004C454420415A554CEC
:100BD80000000000000000000800000054454C41DF
:100BE8002034202D20414443200000004C45495426
:100BF8005552413A20000000000000000A000100A0
:020C0800FFFFEC
:020C0A000000E8
:010C0C0030B7
:020C0D000000E5
:020000040030CA
:0E000000000C1F1EFF8381FF0FC00FE00F409A
:00000001FF
